:02000000632C6F
:06000600000000000800EC
:10000C000F3083120313FC004730FD00FD0B0C284E
:0A001C00FC0B0C2800000000080097
:0E002600213083120313FD00FD0B1728080084
:0E003400F201F101F001F801F30100300800C3
:1000420083120313F801F9011030FC00710DF80D51
:10005200F90D7408F8027508031C750FF9020318EC
:1000620039287408F80775080318750FF907031083
:0A007200F00DF10DFC0B272808002B
:10007C0083160313BF1B452883128813472883124A
:10008C00881783163F1B4D28831208134F288312A1
:10009C0008178316BF1A5528831288125728831203
:1000AC00881683163F1A5D28831208125F28831264
:1000BC0008166D1863288814642888100814032007
:1000CC0008108316BF196D28831288136F288312AA
:1000DC00881783163F197528831208137728831203
:1000EC0008178316BF187D28831288127F28831265
:1000FC00881683163F1885288312081287288312C6
:10010C0008166D188B2888148C2888100814032066
:0E011C0008106D1C932806209428132008005C
:10012A007B15FB1F9F280130F300F201F101F0015A
:08013A00FA0DF20CFF30080081
:08014200FA1FF213003008005F
:10014A007B14FB1FB028F201FA1FFF30F200F10006
:0A015A00F000FA0DF20CFF3008006F
:0E016400831203136C088A006B0882000800E7
:1001720083160313BD0105303D020318C7283D084D
:100182003C07840020308000BD0ABC283D083C07A3
:1001920084008001BD033D083C07BE000A30F40024
:1001A200F5013A08F0003B08F10021207808F00040
:1001B2007908F1003030F00783163E088400700899
:1001C20080000A30F400F5013A08F0003B08F10023
:1001D200212070088316BA007108BB000030710636
:1001E200031DF52800307006031DF828FA28BD0308
:0401F200CC2808000D
:1001F6000E3083120313FD00FD0BFF2800000800DC
:10020600A0017208031D18297108F2007008F10098
:10021600F001A0157208031D18297108F200F101FA
:10022600A01120167208031926292008F302031DBF
:10023600031C2A290310F21B2E29F00DF10DF20DD5
:10024600F30B1E292A290130FC001A20312902301D
:0E025600FC00952031290430FC00A120080096
:06026400FB15FF3008004D
:10026A00FB14FB1F3F29FF30F300F200F100F000FE
:08027A00FA0DF20CFF30080040
:10028200831203136D1083163A08BF003E206D14CB
:02029200080062
:1002940083120313FB017308031D77080319A129B3
:1002A40072087606FA007708F3077E30031C5E298D
:1002B400F3020318A4296129F302031CA729720875
:1002C400F8007108FC007008FD00F817F617031019
:1002D400F201F101F0011830A0007D1C7B297408A3
:1002E400F00775080318750FF10776080318760FE1
:1002F400F207F20CF10CF00CF80CFC0CFD0C0310E2
:10030400A00B6F29F21B8B29F80DF00DF10DF20DE6
:10031400F3037B1B701C9D29F81F9D29F00A031908
:10032400F10A0319F20A031D9D29F20CF10CF00CD9
:10033400F30A0319A429FA1FF2130030A929013082
:100344001A20A92902303521A9290430952000005A
:0203540008009F
:1003560083120313FA017308031D7A147708031D29
:10036600FA147A080319F729033A0319C2297A18E5
:10037600BF29F61FF529F329F21FF329F52972087B
:100386008039FA00F21376088039F6137A060319D3
:10039600D0297A080319F329F52977087302031976
:1003A600D729031CEB29EF29760872020319DE29E7
:1003B600031CEB29EF29750871020319E529031CB3
:1003C600EB29EF29740870020319F7290318EF299E
:1003D600FA080319F529F329FA080319F329F52967
:1003E600031408000310080003140315080008008E
:1003F600831203139F01C0309F0483161F179F1794
:100406003108F000F00D7010F00D7010F00D701046
:10041600700883129F041F14FB201F151F1D152A29
:100426000000112A1F101E08F100F00183161E0895
:08043600F0040030F10408009D
:10043E00831203137408003A031D3A2A7508003A12
:10044E00031D3A2A7608003A031D3A2A7708003A25
:10045E00031D3A2AFF30F000FF30F1007F30F2002A
:10046E00FF30F300D52A8312031377080319C92A24
:10047E0073080319CC2A720876068039FA00F2172F
:10048E00F617A0017208F8007108FC007008FD0054
:10049E007408FD027508031C750FFC027608031C18
:1004AE00760FF802F801FC01FD01031C652A03100A
:1004BE00F20CF10CF00CF80C0130A0007708F302EE
:1004CE00031C6F2A7E302007F3070318CF2A742AE5
:1004DE007E302007F307031CD22A1830FA07FD0DD1
:1004EE00FC0DF80DF00DF10DF20DA00D7408F002DB
:1004FE007508031C750FF1027608031C760FF202C5
:10050E00760DA004201C8D2A7D14982A7408F007FD
:10051E0075080318750FF10776080318760AF207A7
:10052E007D10FA031F307A05031D762A7B1B7D1C76
:10053E00BF2A0310F00DF10DF20DA00D7408F0029C
:10054E007508031C750FF1027608031C760FF20274
:10055E00760D20040139FD070318FC0A0319F80A69
:10056E00031DBF2AF80CFC0CFD0CF30A0319CF2A4D
:10057E00FA1FF8137808F2007C08F1007D08F000ED
:10058E000030D42A01303221D42A02301A20D42A43
:0E059E0004303521D42A0830952000000800D2
:1005AC00831203137008F8007108F000F101F201D6
:1005BC00F301FB01FC019630F300FA017008F10025
:0C05CC007808F000F801F201032108009B
:1005D80083160313B601B7013108B8003208B90011
:1005E80080303206F00080307002031DFD2A003092
:1005F800310203180B2B0130B6000030B700310868
:10060800003CB8003208031C013EB901B9023808A1
:10061800BA003908BB003308BC00B9200630B40062
:100628000030B5003508003C031D1C2B3408003C85
:100638000318372B34083307F20001303402F00076
:100648000030031C013E3502F100700833078400B6
:100658000008F00072088400700880000130B402BD
:10066800031CB503162B330884002030800036089D
:1006780037040319552BB401B50134083307840036
:100688000008203A031D4C2BB40A0319B50A412B64
:100698000130B402031CB5033408330784002D303D
:0406A80080000800C6
:1006AC00FF3083160313A000FF30A100FF30A2001F
:1006BC00FF3083129F01C0309F0483161F179F17B2
:0606CC0083121F14080058
:1006D200B2208A110A128000840AEB0A0319EC0A7A
:0806E200F003031D692B080061
:1006EA008316031308108810081288120813881337
:1006FA00831208108810881308138812081206201B
:10070A00062006208816081608140320081006205A
:10071A0008140320081006200814032008100620D5
:10072A0008120814032008100620081403200810D1
:10073A008812881708140320081006208813081640
:10074A0008140320081008120814032008100620B1
:10075A00081403200810081608140320081006209D
:10076A000812081403200810881708178816081694
:0C077A0008140320081006206D1408006D
:1007860083120313FB0173080319002C7208FA0085
:10079600F2178E30F302F31F032CF309F30A083025
:1007A6007302031CE62BF300F10D7208F100F2014F
:1007B60008307302031CE62BF300F10DF1017308F8
:1007C600031D0310EE2B73080319EE2B0310F20C16
:1007D600F10CF30BE92B7B1B711CF82B031CF82B7C
:1007E600F10A0319F20AF21B0F2CFA1F122CF20956
:1007F600F109F10A0319F20A122CF201F101122C85
:100806007B14FB1F152CF201FA1F152CFF30F2008A
:10081600F100FA0DF20C152C0130FC00172C0030FB
:10082600FC00172CFF30FC00FC0803191B2CA5202C
:0A0836007108F0007208F1000800DC
:10084000322C803083160313B100452CC030B10028
:10085000452C9430B100452CD430B100452C80306B
:10086000B100452C831603133108013A0319212CDA
:100870003108023A0319262C3108033A0319292CAE
:100880003108043A03192C2C2F2C3203F0003108C4
:10089000F0077008B1007008BF003E206D1083168D
:1008A000B40134083307840000080319602C3408AD
:1008B000330784000008BA0041218316B40A512C82
:0608C00083126D14080014
:1008C600802756237523FF3083168500FF30860068
:1008D600870189018312870189010C308316BF00C5
:1008E6003E20BE01BF01BC01BD01061CC92D3F084B
:1008F600003C031D802C3E08023C0318992C013055
:100906008316B1000130B2002130B30020248717CE
:100916000330FB000830FC007730FD00FD0B912C06
:10092600FC0B912CFB0B912C8713A12C0130831609
:10093600B1000130B2003230B300202402308316F9
:10094600B1000330B2002C30B300202401308316EE
:10095600B100FB2170088312EE007108EF00D62269
:100966000030F400C030F5007F30F6008830F70024
:100976001F220030F4000030F5004830F6008530C4
:10098600F7004A2170088316AA007108AB007208A6
:10099600AC007308AD00C32370088316B10071085C
:1009A600B200A330B300EC220230B1000830B2002E
:1009B600A330B3002024861BE22CBE01BF01061E15
:1009C600872D0710091089108713BE0A0319BF0A5D
:1009D60001308316B100FB2170088312EE00710806
:1009E600EF00D6220030F400C030F5007F30F6006C
:1009F6008830F7001F220030F4000030F500483040
:100A0600F6008530F7004A2170088316AA0071089F
:100A1600AB007208AC007308AD00C32370088316E0
:100A2600B1007108B200A330B300EC220230B1006D
:100A36000830B200A330B30020240030F4000030A8
:100A4600F5001630F6008530F70083162A08F00008
:100A56002B08F1002C08F2002D08F300AB21013021
:100A660003180030F000700803193C2D0711091116
:100A7600862D0030F4000030F5001630F600853083
:100A8600F70083162A08F0002B08F1002C08F20064
:100A96002D08F300AB210130031C0030F000700874
:100AA6000319862D07158316B00105303002031889
:100AB600762D831209158230FC00DD30FD00FD0B1A
:100AC600622DFC0B622D0000000009118230FC0033
:100AD600DD30FD00FD0B6D2DFC0B6D2D00000000C3
:100AE6008316B00A582D0B30FB002630FC005D3013
:100AF600FD00FD0B7C2DFC0B7C2DFB0B7C2D0000E3
:100B0600000083120711C92D861E902D861C902D7C
:100B1600061C902D07140914C92D861EC92D86188A
:100B2600C92D061AC92D8618C92D07108717033037
:100B3600FB000830FC007730FD00FD0BA02DFC0B00
:100B4600A02DFB0BA02D87138316B00103303002B6
:100B56000318C72D831289148230FC00DD30FD0096
:100B6600FD0BB32DFC0BB32D000000008910823065
:100B7600FC00DD30FD00FD0BBE2DFC0BBE2D000084
:100B860000008316B00AA92DAE01AF018312051E1F
:100B9600E52E3D08003C031DD22D3C08043C0318FD
:100BA600DD2D01308316B1000130B2006030B30094
:100BB6002024E52D01308316B1000130B2005030FB
:100BC600B300202402308316B1000330B2004A304D
:100BD600B300202401308316B100FB217008831274
:100BE600EE007108EF00D6220030F400C030F500A8
:100BF6007F30F6008830F7001F220030F400003006
:100C0600F5004830F6008530F7004A217008831653
:100C1600AA007108AB007208AC007308AD00C323CC
:100C260070088316B1007108B200A330B300EC223D
:100C36000230B1000830B200A330B3002024861B76
:100C4600262EBC01BD01061F2C2E061A2C2E0714BB
:100C56000914061EE52E061BE52EBC0A0319BD0A5D
:100C66003D08003C031D392E3C08053C0318492E5F
:100C760087170330FB000830FC007730FD00FD0BC2
:100C8600422EFC0B422EFB0B422E87130710091037
:100C960001308316B100FB2170088312EE00710843
:100CA600EF00D6220030F400C030F5007F30F600A9
:100CB6008830F7001F220030F4000030F50048307D
:100CC600F6008530F7004A2170088316AA007108DD
:100CD600AB007208AC007308AD00C323700883161E
:100CE600B1007108B200A330B300EC220230B100AB
:100CF6000830B200A330B30020240030F4000030E6
:100D0600F5001630F6008530F70083162A08F00045
:100D16002B08F1002C08F2002D08F300AB2101305E
:100D260003180030F000700803199B2E07110911F3
:100D36000030F4000030F5001630F6008530F7007C
:100D460083162A08F0002B08F1002C08F2002D0863
:100D5600F300AB210130031C0030F00070080319CA
:100D6600E52E07158316B001053030020318D52E7F
:100D7600831209158230FC00DD30FD00FD0BC12E0B
:100D8600FC0BC12E0000000009118230FC00DD3092
:100D9600FD00FD0BCC2EFC0BCC2E000000008316B4
:100DA600B00AB72E0B30FB002630FC005D30FD008C
:100DB600FD0BDB2EFC0BDB2EFB0BDB2E00000000FD
:100DC6008312071106182E2F051A2E2F01308316AF
:100DD600B1000130B2004030B30020240230831647
:100DE600B1000330B2005A30B3002024013083161C
:100DF600B100FB2170088312EE007108EF00D622C5
:100E06000030F400C030F5007F30F6008830F7007F
:100E16001F220030F4000030F5004830F60085301F
:100E2600F7004A2170088316AA007108AB00720801
:100E3600AC007308AD00C32370088316B1007108B7
:100E4600B200A330B300EC220230B1000830B20089
:0A0E5600A330B3002024782C2F2FC6
:100F0000213084004A3083120313F0003530EB00A7
:080F10000730EC006923080022
:100E6A00473461347334703469346C346C346134AB
:060E7A006734653400340A
:0C0E80004534613475343D3420340034B6
:100E8C004D346F346434653420344A346F347534E3
:040E9C007234003478
:040EA00000340034E6
:040EA40000340034E2
:100EA8004234693465346E34763465346E3475345E
:040EB8006534003469
:0C0EBC004534613475343D34203400347A
:100EC8004D346F346434653420344E3475346934A9
:040ED800743400343A
:0C0EDC004534613475343D34203400345A
:100EE800473461347334703469346C346C3461342D
:060EF8006734653400348C
:02400E007A3BFB
:00000001FF
